:020000020000FC
:10E000000C94F972189500001895000018950000FE
:10E010000C94C8731895000018950000189500001E
:10E02000189500001895000018950000189500003C
:10E03000189500001895000018950000189500002C
:10E04000189500001895000018950000189500001C
:10E050000C9435720C944E721895000018950000BF
:10E0600018950000189500001895000018950000FC
:10E0700018950000189500001895000000CC0000CD
:10E08000FF00FF24EE24DD24BB24AA24CC24992401
:10E0900088247724662450E060E00E94AD72442E0C
:10E0A0000E941A7208956FB7F8945D2D58305FB7CB
:10E0B00051FD22C0AF93BF93CF93DF93A0E0B2E0B6
:10E0C000AF0D4C93FF0CFF0CFF0CFF0CA0E8B1E070
:10E0D000AF0D50E149914D935A95E1F7D394F694E1
:10E0E000F694F694F694F3944F2D477FF42E44273C
:10E0F000DF91CF91BF91AF916FBF08956FB7F89443
:10E10000472D442311F1AF93BF93CF93DF93880C36
:10E11000880C880C880CA0E0B1E0A80D8694869449
:10E120008694869450E14D9149935A95E1F7A8E081
:10E13000B2E0A80D4C918394582D577F852E7A9488
:10E1400000C0DF91CF91BF91AF916FBF0895B6FE30
:10E150000895B5FC08955B2D5370F0E7E3EBE50FF0
:10E1600008F4F395099403C04CC072C032C0DD209E
:10E1700039F44B2D43604F7FB42E0E94777208957F
:10E18000A0E1B2E040E04D934AEA4D93C0E0D2E016
:10E19000CE0D48814D934D92CD92C39444274D931B
:10E1A000EE0CEE0CEE0CEE0CC0E8D1E0CE0DE694D9
:10E1B000E694E694E69450E149914D935A95E1F73F
:10E1C0004FEF4D934B2D41604D7FB42E0E947772DF
:10E1D0000895ECE7F0EE4427EA0DF41F44910E9405
:10E1E0002772A3946A2D653009F00895AA24BB24F0
:10E1F0004B2D0E9477724091C1004F7D4093C1002A
:10E20000089567E16A1541F0A0E1B2E0AA0D4C91D2
:10E210000E942772A3940895B4FE06C0AA24BB24CA
:10E220004B2D0E94777208954B2D4F7B4062B42E88
:10E230000E9477720895E3944E2D477FE42EAA241E
:10E24000DA944B2D43644F7DB42E0E94777208956B
:10E2500066E06A1541F0A0E1B2E0AA0D4C910E947F
:10E260002772A3940895AA24BB244B2D0E94777291
:10E270000895B7FC08954B2D406CB42E0E94777220
:10E280004091C10040624093C1000895552D5370E4
:10E29000F1E7EEE4E50F08F4F395099403C02AC012
:10E2A0009DC093C060FC09C050E0451305C0A7E2C3
:10E2B000B2E04C936394089508954A3A41F04B3B81
:10E2C00059F04C3C71F050E045136A940895552D77
:10E2D00051605D7F552E09C0552D52605E7F552ED1
:10E2E00004C0552D53605F7F552EC7E2D2E04983AD
:10E2F00063940895C7E2D2E0C60D4883639447E172
:10E300004611089566245524C7E24B814415D1F087
:10E310004A814415D1F0C7E2D2E0A0E1B2E057E172
:10E3200049914D935A95E1F7AA244B2D40654160E0
:10E330004D7FB42E0E9477724091C100406240939D
:10E34000C10008950E941B710895572D58305FB782
:10E3500051FD1EC0C7E2D2E0A8E0B2E0A90D4B819A
:10E360004C93990C990C990C990CA0E0B1E0A90D73
:10E3700056E0C50F50E149914D935A95E1F77394DA
:10E3800096949694969496949394492D477F942EC0
:10E39000C7E2D2E0A0E1B2E040E04D934BEB4D93F9
:10E3A0004B814D934D924C814D934FEF4D93AA2449
:10E3B0004B2D406442604E7FB42E0E947772409194
:10E3C000C10040624093C1000895639445E0461146
:10E3D0000895662455240E9439710895C7E2D2E059
:10E3E000C60D4883639446E046110895662455247B
:10E3F000C7E24B814415D1F04A814415C1F0C7E210
:10E40000D2E0A0E1B2E056E049914D935A95E1F790
:10E41000AA244B2D406542604E7FB42E0E94777235
:10E420004091C10040624093C100089508950E9448
:10E430001B71089540E04093C50048E04093C4003C
:10E4400048E94093C10046E04093C20008955091CE
:10E45000C00055FFFCCF4093C60008954091C00016
:10E4600047FFFCCF4091C60008950FB7142F252F0A
:10E47000362FAF93BF93CF93DF93EF93FF930E9419
:10E480002E720E944671FF91EF91DF91CF91BF9163
:10E49000AF91632F522F412F0FBF18950FB7142F35
:10E4A000252F362FAF93BF93CF93DF93EF93FF9337
:10E4B0000E94A770FF91EF91DF91CF91BF91AF9133
:10E4C000632F522F412F0FBF1895CF93DF934F9398
:10E4D0004427CEE3D2E0499349930E9473724F914F
:10E4E000DF91CF910895409545B940950895CF9318
:10E4F000DF935F93CEE3D2E049935881542B50953C
:10E5000055B95F91DF91CF910895CF93DF935F93DA
:10E51000CEE3D2E049835881542B509555B95F9191
:10E52000DF91CF9108954F935F9353B14FEF0E94C6
:10E5300073720E94A272469540FDF9CF55B95F9162
:10E540004F9108954F935F93442755275A95F1F7BC
:10E550004A95D9F75F914F9108955F936F93F99919
:10E56000FCCF51BD62BDF89A40B56F915F9108959F
:10E570000F921F928F939F937F9373E00E94ED728F
:10E5800071E10E94ED7280E091E00990199071E0D4
:10E590000E94ED7232960297C1F7E050F14075E0AB
:10E5A0000E94ED7271E10E94ED7280E091E0C05036
:10E5B000D1400590199001100C94F8720197C9F799
:10E5C00057B756FD06C07F919F918F911F900F9076
:10E5D000089571E10E94ED72F3CF57B750FDFDCF62
:10E5E0006FB7F894F999FECF77BFE8956FBF08959C
:10E5F00008950FEF0DBF00E10EBF0FEF05B90FEF4C
:10E6000004B90FEF02B900E001B90C942F732D414A
:10E6100056522D544B4E626F6F742D2D2D2D2D455E
:10E6200072726F722D2D2D2D2D2D2D2D2D2D2D50E6
:10E630004320496E7420372D2D2D2D2D2D2D2D4D40
:10E6400043552D52454144592D2D2D2D2D2D2D470E
:10E650006F746F20557365722D2D2D2D2D2D0E94F9
:10E6600065720E9441700E94B673C0E4D2E040E837
:10E670005AEA6BEB599369934A95E1F70024112408
:10E68000222433249927C0E4D3E00E94AF73789406
:10E690000E947E70442309F4FBCF59815A3361F400
:10E6A0005881533571F0523409F15535E9F05FE383
:10E6B00058835527598300C00E9453704423E1F7C3
:10E6C000E7CFE0E0F0E041E247BF1490E395E39547
:10E6D00041E247BF2490E395E39541E247BF349080
:10E6E0001A822B823C82E8CF0C94000099278B8100
:10E6F000EEE3F6EE0E949D730E945370E0E4F2E0B8
:10E700000E947E70442309F4FBCF50E1699161932C
:10E710005A95E1F7C0E4D3E058E0950F903881F7BF
:10E72000C0E4D2E0EE27F82F0E94B8720394402D87
:10E730000E947372C0E4D3E0C3CF4F935F93CF9333
:10E74000DF93EF93FF9350E1459149935A95E1F799
:10E75000FF91EF91DF91CF915F914F91089545B770
:10E76000542F416045BF526055BF0895E8984091CD
:10E770006900426040936900E89A409168004160F6
:10E780004093680040916B00406840936B0008958F
:10E790000FB7142F252F362FCF93DF93EF93FF93CF
:10E7A000D3E0C0E4EEE2F6EE0E949D7341E00E94E9
:10E7B0005370FF91EF91DF91CF91632F522F412F33
:04E7C0000FBF1895DA
:00000001FF
