:020000020000FC
:060000000C94730018953A
:02000800189549
:02000C00189545
:02001000189541
:0200140018953D
:02001800189539
:02001C00189535
:02002000189531
:0200240018952D
:02002800189529
:02002C00189525
:02003000189521
:0200340018951D
:02003800189519
:02003C00189515
:02004000189511
:0200440018950D
:02004800189509
:02004C00189505
:060050000C94510018950C
:020058001895F9
:02005C001895F5
:020060001895F1
:020064001895ED
:020068001895E9
:02006C001895E5
:020070001895E1
:020074001895DD
:10007800189500E00093C50003E30093C40008E16D
:100088000093C10006E00093C20008954091C000AB
:1000980045FFFCCF0093C60008950F930091C6005A
:1000A8000E944A000F9118950F93002705B900B1D7
:1000B8000F3FE9F300270894001F05B90E94680064
:1000C80007FFF9CF0F910895EF92FF92FF24EE24D6
:1000D800EA94F1F7FA94D9F7FF90EF9008950FEFAB
:1000E8000DBF00E10EBF0FEF05B90FEF04B90FEF19
:1000F80002B900E001B90E943D0000E20E945800E8
:100108000E944A000E3749F40AE00E944A000DE0B6
:100118000E944A0000E20C94820003950C9482002D
:00000001FF
