:020000020000FC
:10E000000C94D47E18950000189500001895000017
:10E010000C94347F189500001895000018950000A6
:10E02000189500001895000018950000189500003C
:10E03000189500001895000018950000189500002C
:10E04000189500001895000018950000189500001C
:10E050000C94517E0C946A7E18950000189500006F
:10E0600018950000189500001895000018950000FC
:10E0700018950000189500001895000000CC0000CD
:10E08000FF00FF24EE24DD24BB24AA24CC24992401
:10E0900088247724662450E060E00E94C97E442EE4
:10E0A0000E94367E08956FB7F894AF93BF93CF93D5
:10E0B000DF935D2D58305FB751FD1AC0A0E0B2E08C
:10E0C000AF0D4C93FF0CFF0CFF0CFF0CA0E8B1E070
:10E0D000AF0D50E149914D935A95E1F7D394F694E1
:10E0E000F694F694F694F3944F2D477FF42E44273C
:10E0F000DF91CF91BF91AF916FBF0895B7FC0895A5
:10E100004B2D406CB42E0E94937E4091C100406222
:10E110004093C1000895B6FE0895B5FC08955B2DA7
:10E120005370F0E7E7E9E50F08F4F395099403C0AD
:10E130004CC072C032C0DD2039F44B2D43604F7F9C
:10E14000B42E0E94937E0895A0E1B2E040E04D938A
:10E150004AEA4D93C0E0D2E0CE0D48814D934D92F6
:10E16000CD92C39444274D93EE0CEE0CEE0CEE0CC6
:10E17000C0E8D1E0CE0DE694E694E694E69450E152
:10E1800049914D935A95E1F74FEF4D934B2D4160D7
:10E190004D7FB42E0E94937E0895ECE7F0EE442765
:10E1A000EA0DF41F44910E94437EA3946A2D6530CA
:10E1B00009F00895AA24BB244B2D0E94937E409120
:10E1C000C1004F7D4093C100089567E16A1541F099
:10E1D000A0E1B2E0AA0D4C910E94437EA394089561
:10E1E000B4FE06C0AA24BB244B2D0E94937E089542
:10E1F0004B2D4F7B4062B42E0E94937E0895E39492
:10E200004E2D477FE42EAA24DA944B2D43644F7D94
:10E21000B42E0E94937E089566E06A1541F0A0E155
:10E22000B2E0AA0D4C910E94437EA3940895AA24C3
:10E23000BB244B2D0E94937E0895552D5370F1E71A
:10E24000E5E2E50F08F4F395099403C02AC09DC0E8
:10E2500093C060FC09C050E0451305C0A7E2B2E0DE
:10E260004C936394089508954A3A41F04B3B59F01A
:10E270004C3C71F050E045136A940895552D51605F
:10E280005D7F552E09C0552D52605E7F552E04C00E
:10E29000552D53605F7F552EC7E2D2E049836394CA
:10E2A0000895C7E2D2E0C60D4883639447E1461162
:10E2B000089566245524C7E24B814415D1F04A8164
:10E2C0004415D1F0C7E2D2E0A0E1B2E057E14991B4
:10E2D0004D935A95E1F7AA244B2D406541604D7F3F
:10E2E000B42E0E94937E4091C10040624093C100D1
:10E2F00008950E94FF700895572D58305FB751FD63
:10E300001EC0C7E2D2E0A8E0B2E0A90D4B814C9359
:10E31000990C990C990C990CA0E0B1E0A90D56E06C
:10E32000C50F50E149914D935A95E1F77394969436
:10E330009694969496949394492D477F942EC7E291
:10E34000D2E0A0E1B2E040E04D934BEB4D934B8126
:10E350004D934D924C814D934FEF4D93AA244B2DED
:10E36000406442604E7FB42E0E94937E4091C10073
:10E3700040624093C1000895639445E046110895BA
:10E38000662455240E947E700895C7E2D2E0C60D2F
:10E390004883639446E04611089566245524C7E2F5
:10E3A0004B814415D1F04A814415C1F0C7E2D2E057
:10E3B000A0E1B2E056E049914D935A95E1F7AA24C5
:10E3C0004B2D406542604E7FB42E0E94937E40915B
:10E3D000C10040624093C100089508950E94FF70FB
:10E3E00008956F936FB7F894AF93BF93CF93DF9374
:10E3F0007720D1F0880C880C880C880CA0E0B1E064
:10E40000A80D869486948694869450E14D91499304
:10E410005A95E1F7A8E0B2E0A80D4C918394582DED
:10E42000577F852E7A9401C04427DF91CF91BF9109
:08E43000AF916FBF6F910895D9
:10FC000073E00E942A7E71E10E942A7E80E091E0EA
:10FC10000990199071E00E942A7E32960297C1F7EE
:10FC2000E050F14075E00E942A7E71E10E942A7E38
:10FC300080E091E0C050D1400590199001100C94E3
:10FC4000357E0197C9F757B756FF089571E10E94B5
:10FC50002A7EF9CF57B750FDFDCF6FB7F894F999C9
:10FC6000FECF77BFE8956FBF0895089540E04093B9
:10FC7000C50048E04093C40048E94093C10046E015
:10FC80004093C20008955091C00055FFFCCF4093AF
:10FC9000C60008954091C00047FFFCCF4091C600C8
:10FCA00008950FB7142F252F362FAF93BF93CF93FF
:10FCB000DF93EF93FF930E944A7E0E941D71FF9194
:10FCC000EF91DF91CF91BF91AF91632F522F412FD1
:10FCD0000FBF18950FB7142F252F362FAF93BF9353
:10FCE000CF93DF93EF93FF930E948B70FF91EF917F
:10FCF000DF91CF91BF91AF91632F522F412F0FBF53
:10FD00001895CF93DF934F934427CEE3D2E04993E6
:10FD100049930E948F7E4F91DF91CF910895409536
:10FD200045B940950895CF93DF935F93CEE3D2E03A
:10FD300049935881542B509555B95F91DF91CF91DC
:10FD40000895CF93DF935F93CEE3D2E04983588148
:10FD5000542B509555B95F91DF91CF9108954F93F2
:10FD60005F9353B14FEF0E948F7E0E94BE7E4695F7
:10FD700040FDF9CF55B95F914F9108954F935F932F
:10FD8000442755275A95F1F74A95D9F75F914F9136
:10FD900008955F936F93F999FCCF51BD62BDF89AB6
:10FDA00040B56F915F9108950FEF0DBF00E10EBF59
:10FDB0000FEF05B90FEF04B90FEF02B900E001B979
:10FDC0000C94EA7E2D4D43552D52454144592D2D1D
:10FDD0002D2D2D2D0E94817E0E9441700E94227F38
:10FDE000E4ECFDEFC0E4D2E050E1459149935A952F
:10FDF000E1F70E941B7F3324C0E0D3E078940E9497
:10FE0000F1714423E1F3FBCF5F85552339F05A307C
:10FE100029F050E1C50F08F4D395F1CFC0E4D2E04A
:10FE20000E9453704423E1F73394432D0E94A17E36
:10FE3000C0E0D3E0E4CF45B7542F416045BF5260E6
:10FE400055BF0895E8984091690042604093690069
:10FE5000E89A4091680041604093680040916B00CF
:10FE6000406840936B0008950FB7142F252F362F4D
:10FE7000CF93DF93D2E0C0E441E00E945370DF9162
:0CFE8000CF91632F522F412F0FBF189518
:00000001FF
